{
  "_format": "hh-sol-artifact-1",
  "contractName": "Decentratwitter",
  "sourceName": "contracts/Decentratwitter.sol",
  "abi": [
    {
      "inputs": [],
      "stateMutability": "nonpayable",
      "type": "constructor"
    },
    {
      "anonymous": false,
      "inputs": [
        {
          "indexed": true,
          "internalType": "address",
          "name": "owner",
          "type": "address"
        },
        {
          "indexed": true,
          "internalType": "address",
          "name": "approved",
          "type": "address"
        },
        {
          "indexed": true,
          "internalType": "uint256",
          "name": "tokenId",
          "type": "uint256"
        }
      ],
      "name": "Approval",
      "type": "event"
    },
    {
      "anonymous": false,
      "inputs": [
        {
          "indexed": true,
          "internalType": "address",
          "name": "owner",
          "type": "address"
        },
        {
          "indexed": true,
          "internalType": "address",
          "name": "operator",
          "type": "address"
        },
        {
          "indexed": false,
          "internalType": "bool",
          "name": "approved",
          "type": "bool"
        }
      ],
      "name": "ApprovalForAll",
      "type": "event"
    },
    {
      "anonymous": false,
      "inputs": [
        {
          "indexed": false,
          "internalType": "uint256",
          "name": "id",
          "type": "uint256"
        },
        {
          "indexed": false,
          "internalType": "string",
          "name": "hash",
          "type": "string"
        },
        {
          "indexed": false,
          "internalType": "uint256",
          "name": "tipAmount",
          "type": "uint256"
        },
        {
          "indexed": false,
          "internalType": "address payable",
          "name": "author",
          "type": "address"
        }
      ],
      "name": "PostCreated",
      "type": "event"
    },
    {
      "anonymous": false,
      "inputs": [
        {
          "indexed": false,
          "internalType": "uint256",
          "name": "id",
          "type": "uint256"
        },
        {
          "indexed": false,
          "internalType": "string",
          "name": "hash",
          "type": "string"
        },
        {
          "indexed": false,
          "internalType": "uint256",
          "name": "tipAmount",
          "type": "uint256"
        },
        {
          "indexed": false,
          "internalType": "address payable",
          "name": "author",
          "type": "address"
        }
      ],
      "name": "PostTipped",
      "type": "event"
    },
    {
      "anonymous": false,
      "inputs": [
        {
          "indexed": true,
          "internalType": "address",
          "name": "from",
          "type": "address"
        },
        {
          "indexed": true,
          "internalType": "address",
          "name": "to",
          "type": "address"
        },
        {
          "indexed": true,
          "internalType": "uint256",
          "name": "tokenId",
          "type": "uint256"
        }
      ],
      "name": "Transfer",
      "type": "event"
    },
    {
      "inputs": [
        {
          "internalType": "address",
          "name": "to",
          "type": "address"
        },
        {
          "internalType": "uint256",
          "name": "tokenId",
          "type": "uint256"
        }
      ],
      "name": "approve",
      "outputs": [],
      "stateMutability": "nonpayable",
      "type": "function"
    },
    {
      "inputs": [
        {
          "internalType": "address",
          "name": "owner",
          "type": "address"
        }
      ],
      "name": "balanceOf",
      "outputs": [
        {
          "internalType": "uint256",
          "name": "",
          "type": "uint256"
        }
      ],
      "stateMutability": "view",
      "type": "function"
    },
    {
      "inputs": [],
      "name": "getAllPosts",
      "outputs": [
        {
          "components": [
            {
              "internalType": "uint256",
              "name": "id",
              "type": "uint256"
            },
            {
              "internalType": "string",
              "name": "hash",
              "type": "string"
            },
            {
              "internalType": "uint256",
              "name": "tipAmount",
              "type": "uint256"
            },
            {
              "internalType": "address payable",
              "name": "author",
              "type": "address"
            }
          ],
          "internalType": "struct Decentratwitter.Post[]",
          "name": "_posts",
          "type": "tuple[]"
        }
      ],
      "stateMutability": "view",
      "type": "function"
    },
    {
      "inputs": [
        {
          "internalType": "uint256",
          "name": "tokenId",
          "type": "uint256"
        }
      ],
      "name": "getApproved",
      "outputs": [
        {
          "internalType": "address",
          "name": "",
          "type": "address"
        }
      ],
      "stateMutability": "view",
      "type": "function"
    },
    {
      "inputs": [],
      "name": "getMyNfts",
      "outputs": [
        {
          "internalType": "uint256[]",
          "name": "_ids",
          "type": "uint256[]"
        }
      ],
      "stateMutability": "view",
      "type": "function"
    },
    {
      "inputs": [
        {
          "internalType": "address",
          "name": "owner",
          "type": "address"
        },
        {
          "internalType": "address",
          "name": "operator",
          "type": "address"
        }
      ],
      "name": "isApprovedForAll",
      "outputs": [
        {
          "internalType": "bool",
          "name": "",
          "type": "bool"
        }
      ],
      "stateMutability": "view",
      "type": "function"
    },
    {
      "inputs": [
        {
          "internalType": "string",
          "name": "_tokenURI",
          "type": "string"
        }
      ],
      "name": "mint",
      "outputs": [
        {
          "internalType": "uint256",
          "name": "",
          "type": "uint256"
        }
      ],
      "stateMutability": "nonpayable",
      "type": "function"
    },
    {
      "inputs": [],
      "name": "name",
      "outputs": [
        {
          "internalType": "string",
          "name": "",
          "type": "string"
        }
      ],
      "stateMutability": "view",
      "type": "function"
    },
    {
      "inputs": [
        {
          "internalType": "uint256",
          "name": "tokenId",
          "type": "uint256"
        }
      ],
      "name": "ownerOf",
      "outputs": [
        {
          "internalType": "address",
          "name": "",
          "type": "address"
        }
      ],
      "stateMutability": "view",
      "type": "function"
    },
    {
      "inputs": [],
      "name": "postCount",
      "outputs": [
        {
          "internalType": "uint256",
          "name": "",
          "type": "uint256"
        }
      ],
      "stateMutability": "view",
      "type": "function"
    },
    {
      "inputs": [
        {
          "internalType": "uint256",
          "name": "",
          "type": "uint256"
        }
      ],
      "name": "posts",
      "outputs": [
        {
          "internalType": "uint256",
          "name": "id",
          "type": "uint256"
        },
        {
          "internalType": "string",
          "name": "hash",
          "type": "string"
        },
        {
          "internalType": "uint256",
          "name": "tipAmount",
          "type": "uint256"
        },
        {
          "internalType": "address payable",
          "name": "author",
          "type": "address"
        }
      ],
      "stateMutability": "view",
      "type": "function"
    },
    {
      "inputs": [
        {
          "internalType": "address",
          "name": "",
          "type": "address"
        }
      ],
      "name": "profiles",
      "outputs": [
        {
          "internalType": "uint256",
          "name": "",
          "type": "uint256"
        }
      ],
      "stateMutability": "view",
      "type": "function"
    },
    {
      "inputs": [
        {
          "internalType": "address",
          "name": "from",
          "type": "address"
        },
        {
          "internalType": "address",
          "name": "to",
          "type": "address"
        },
        {
          "internalType": "uint256",
          "name": "tokenId",
          "type": "uint256"
        }
      ],
      "name": "safeTransferFrom",
      "outputs": [],
      "stateMutability": "nonpayable",
      "type": "function"
    },
    {
      "inputs": [
        {
          "internalType": "address",
          "name": "from",
          "type": "address"
        },
        {
          "internalType": "address",
          "name": "to",
          "type": "address"
        },
        {
          "internalType": "uint256",
          "name": "tokenId",
          "type": "uint256"
        },
        {
          "internalType": "bytes",
          "name": "_data",
          "type": "bytes"
        }
      ],
      "name": "safeTransferFrom",
      "outputs": [],
      "stateMutability": "nonpayable",
      "type": "function"
    },
    {
      "inputs": [
        {
          "internalType": "address",
          "name": "operator",
          "type": "address"
        },
        {
          "internalType": "bool",
          "name": "approved",
          "type": "bool"
        }
      ],
      "name": "setApprovalForAll",
      "outputs": [],
      "stateMutability": "nonpayable",
      "type": "function"
    },
    {
      "inputs": [
        {
          "internalType": "uint256",
          "name": "_id",
          "type": "uint256"
        }
      ],
      "name": "setProfile",
      "outputs": [],
      "stateMutability": "nonpayable",
      "type": "function"
    },
    {
      "inputs": [
        {
          "internalType": "bytes4",
          "name": "interfaceId",
          "type": "bytes4"
        }
      ],
      "name": "supportsInterface",
      "outputs": [
        {
          "internalType": "bool",
          "name": "",
          "type": "bool"
        }
      ],
      "stateMutability": "view",
      "type": "function"
    },
    {
      "inputs": [],
      "name": "symbol",
      "outputs": [
        {
          "internalType": "string",
          "name": "",
          "type": "string"
        }
      ],
      "stateMutability": "view",
      "type": "function"
    },
    {
      "inputs": [
        {
          "internalType": "uint256",
          "name": "_id",
          "type": "uint256"
        }
      ],
      "name": "tipPostOwner",
      "outputs": [],
      "stateMutability": "payable",
      "type": "function"
    },
    {
      "inputs": [],
      "name": "tokenCount",
      "outputs": [
        {
          "internalType": "uint256",
          "name": "",
          "type": "uint256"
        }
      ],
      "stateMutability": "view",
      "type": "function"
    },
    {
      "inputs": [
        {
          "internalType": "uint256",
          "name": "tokenId",
          "type": "uint256"
        }
      ],
      "name": "tokenURI",
      "outputs": [
        {
          "internalType": "string",
          "name": "",
          "type": "string"
        }
      ],
      "stateMutability": "view",
      "type": "function"
    },
    {
      "inputs": [
        {
          "internalType": "address",
          "name": "from",
          "type": "address"
        },
        {
          "internalType": "address",
          "name": "to",
          "type": "address"
        },
        {
          "internalType": "uint256",
          "name": "tokenId",
          "type": "uint256"
        }
      ],
      "name": "transferFrom",
      "outputs": [],
      "stateMutability": "nonpayable",
      "type": "function"
    },
    {
      "inputs": [
        {
          "internalType": "string",
          "name": "_postHash",
          "type": "string"
        }
      ],
      "name": "uploadPost",
      "outputs": [],
      "stateMutability": "nonpayable",
      "type": "function"
    }
  ],
  "bytecode": "0x60806040523480156200001157600080fd5b506040518060400160405280600f81526020017f446563656e7472617477697474657200000000000000000000000000000000008152506040518060400160405280600481526020017f4441505000000000000000000000000000000000000000000000000000000000815250816000908051906020019062000096929190620000b8565b508060019080519060200190620000af929190620000b8565b505050620001cd565b828054620000c69062000168565b90600052602060002090601f016020900481019282620000ea576000855562000136565b82601f106200010557805160ff191683800117855562000136565b8280016001018555821562000136579182015b828111156200013557825182559160200191906001019062000118565b5b50905062000145919062000149565b5090565b5b80821115620001645760008160009055506001016200014a565b5090565b600060028204905060018216806200018157607f821691505b602082108114156200019857620001976200019e565b5b50919050565b7f4e487b7100000000000000000000000000000000000000000000000000000000600052602260045260246000fd5b613e7b80620001dd6000396000f3fe6080604052600436106101405760003560e01c806370a08231116100b6578063bbe156271161006f578063bbe1562714610471578063bdd05adb146104ae578063c87b56dd146104d7578063d6313c0614610514578063d85d3d2714610530578063e985e9c51461056d57610140565b806370a082311461036357806385d3cb37146103a057806395d89b41146103c95780639f181b5e146103f4578063a22cb4651461041f578063b88d4fde1461044857610140565b80630b1e7f83116101085780630b1e7f831461023e57806317906c2e1461027e57806323b872dd146102a957806330561100146102d257806342842e0e146102fd5780636352211e1461032657610140565b806301ffc9a714610145578063047b07bf1461018257806306fdde03146101ad578063081812fc146101d8578063095ea7b314610215575b600080fd5b34801561015157600080fd5b5061016c60048036038101906101679190612925565b6105aa565b6040516101799190613036565b60405180910390f35b34801561018e57600080fd5b5061019761068c565b6040516101a49190613014565b60405180910390f35b3480156101b957600080fd5b506101c26107dc565b6040516101cf9190613051565b60405180910390f35b3480156101e457600080fd5b506101ff60048036038101906101fa91906129b8565b61086e565b60405161020c9190612f8b565b60405180910390f35b34801561022157600080fd5b5061023c600480360381019061023791906128e9565b6108f3565b005b34801561024a57600080fd5b50610265600480360381019061026091906129b8565b610a0b565b604051610275949392919061337a565b60405180910390f35b34801561028a57600080fd5b50610293610ae3565b6040516102a09190613313565b60405180910390f35b3480156102b557600080fd5b506102d060048036038101906102cb91906127e3565b610ae9565b005b3480156102de57600080fd5b506102e7610b49565b6040516102f49190612ff2565b60405180910390f35b34801561030957600080fd5b50610324600480360381019061031f91906127e3565b610d57565b005b34801561033257600080fd5b5061034d600480360381019061034891906129b8565b610d77565b60405161035a9190612f8b565b60405180910390f35b34801561036f57600080fd5b5061038a6004803603810190610385919061277e565b610e29565b6040516103979190613313565b60405180910390f35b3480156103ac57600080fd5b506103c760048036038101906103c291906129b8565b610ee1565b005b3480156103d557600080fd5b506103de610f9e565b6040516103eb9190613051565b60405180910390f35b34801561040057600080fd5b50610409611030565b6040516104169190613313565b60405180910390f35b34801561042b57600080fd5b50610446600480360381019061044191906128ad565b611036565b005b34801561045457600080fd5b5061046f600480360381019061046a9190612832565b61104c565b005b34801561047d57600080fd5b506104986004803603810190610493919061277e565b6110ae565b6040516104a59190613313565b60405180910390f35b3480156104ba57600080fd5b506104d560048036038101906104d09190612977565b6110c6565b005b3480156104e357600080fd5b506104fe60048036038101906104f991906129b8565b61127a565b60405161050b9190613051565b60405180910390f35b61052e600480360381019061052991906129b8565b6113cc565b005b34801561053c57600080fd5b5061055760048036038101906105529190612977565b6116ee565b6040516105649190613313565b60405180910390f35b34801561057957600080fd5b50610594600480360381019061058f91906127a7565b611735565b6040516105a19190613036565b60405180910390f35b60007f80ac58cd000000000000000000000000000000000000000000000000000000007bffffffffffffffffffffffffffffffffffffffffffffffffffffffff1916827bffffffffffffffffffffffffffffffffffffffffffffffffffffffff1916148061067557507f5b5e139f000000000000000000000000000000000000000000000000000000007bffffffffffffffffffffffffffffffffffffffffffffffffffffffff1916827bffffffffffffffffffffffffffffffffffffffffffffffffffffffff1916145b806106855750610684826117c9565b5b9050919050565b606061069733610e29565b67ffffffffffffffff8111156106d6577f4e487b7100000000000000000000000000000000000000000000000000000000600052604160045260246000fd5b6040519080825280602002602001820160405280156107045781602001602082028036833780820191505090505b509050600080600754905060005b818110156107d6573373ffffffffffffffffffffffffffffffffffffffff166107466001836107419190613513565b610d77565b73ffffffffffffffffffffffffffffffffffffffff1614156107c35760018161076f9190613513565b8484815181106107a8577f4e487b7100000000000000000000000000000000000000000000000000000000600052603260045260246000fd5b60200260200101818152505082806107bf9061370b565b9350505b80806107ce9061370b565b915050610712565b50505090565b6060600080546107eb906136a8565b80601f0160208091040260200160405190810160405280929190818152602001828054610817906136a8565b80156108645780601f1061083957610100808354040283529160200191610864565b820191906000526020600020905b81548152906001019060200180831161084757829003601f168201915b5050505050905090565b600061087982611833565b6108b8576040517f08c379a00000000000000000000000000000000000000000000000000000000081526004016108af90613233565b60405180910390fd5b6004600083815260200190815260200160002060009054906101000a900473ffffffffffffffffffffffffffffffffffffffff169050919050565b60006108fe82610d77565b90508073ffffffffffffffffffffffffffffffffffffffff168373ffffffffffffffffffffffffffffffffffffffff16141561096f576040517f08c379a000000000000000000000000000000000000000000000000000000000815260040161096690613293565b60405180910390fd5b8073ffffffffffffffffffffffffffffffffffffffff1661098e61189f565b73ffffffffffffffffffffffffffffffffffffffff1614806109bd57506109bc816109b761189f565b611735565b5b6109fc576040517f08c379a00000000000000000000000000000000000000000000000000000000081526004016109f390613153565b60405180910390fd5b610a0683836118a7565b505050565b6009602052806000526040600020600091509050806000015490806001018054610a34906136a8565b80601f0160208091040260200160405190810160405280929190818152602001828054610a60906136a8565b8015610aad5780601f10610a8257610100808354040283529160200191610aad565b820191906000526020600020905b815481529060010190602001808311610a9057829003601f168201915b5050505050908060020154908060030160009054906101000a900473ffffffffffffffffffffffffffffffffffffffff16905084565b60085481565b610afa610af461189f565b82611960565b610b39576040517f08c379a0000000000000000000000000000000000000000000000000000000008152600401610b30906132f3565b60405180910390fd5b610b44838383611a3e565b505050565b606060085467ffffffffffffffff811115610b8d577f4e487b7100000000000000000000000000000000000000000000000000000000600052604160045260246000fd5b604051908082528060200260200182016040528015610bc657816020015b610bb3612564565b815260200190600190039081610bab5790505b50905060005b600854811015610d535760096000600183610be79190613513565b815260200190815260200160002060405180608001604052908160008201548152602001600182018054610c1a906136a8565b80601f0160208091040260200160405190810160405280929190818152602001828054610c46906136a8565b8015610c935780601f10610c6857610100808354040283529160200191610c93565b820191906000526020600020905b815481529060010190602001808311610c7657829003601f168201915b50505050508152602001600282015481526020016003820160009054906101000a900473ffffffffffffffffffffffffffffffffffffffff1673ffffffffffffffffffffffffffffffffffffffff1673ffffffffffffffffffffffffffffffffffffffff1681525050828281518110610d35577f4e487b7100000000000000000000000000000000000000000000000000000000600052603260045260246000fd5b60200260200101819052508080610d4b9061370b565b915050610bcc565b5090565b610d728383836040518060200160405280600081525061104c565b505050565b6000806002600084815260200190815260200160002060009054906101000a900473ffffffffffffffffffffffffffffffffffffffff169050600073ffffffffffffffffffffffffffffffffffffffff168173ffffffffffffffffffffffffffffffffffffffff161415610e20576040517f08c379a0000000000000000000000000000000000000000000000000000000008152600401610e1790613193565b60405180910390fd5b80915050919050565b60008073ffffffffffffffffffffffffffffffffffffffff168273ffffffffffffffffffffffffffffffffffffffff161415610e9a576040517f08c379a0000000000000000000000000000000000000000000000000000000008152600401610e9190613173565b60405180910390fd5b600360008373ffffffffffffffffffffffffffffffffffffffff1673ffffffffffffffffffffffffffffffffffffffff168152602001908152602001600020549050919050565b3373ffffffffffffffffffffffffffffffffffffffff16610f0182610d77565b73ffffffffffffffffffffffffffffffffffffffff1614610f57576040517f08c379a0000000000000000000000000000000000000000000000000000000008152600401610f4e906132b3565b60405180910390fd5b80600a60003373ffffffffffffffffffffffffffffffffffffffff1673ffffffffffffffffffffffffffffffffffffffff1681526020019081526020016000208190555050565b606060018054610fad906136a8565b80601f0160208091040260200160405190810160405280929190818152602001828054610fd9906136a8565b80156110265780601f10610ffb57610100808354040283529160200191611026565b820191906000526020600020905b81548152906001019060200180831161100957829003601f168201915b5050505050905090565b60075481565b61104861104161189f565b8383611ca5565b5050565b61105d61105761189f565b83611960565b61109c576040517f08c379a0000000000000000000000000000000000000000000000000000000008152600401611093906132f3565b60405180910390fd5b6110a884848484611e12565b50505050565b600a6020528060005260406000206000915090505481565b60006110d133610e29565b11611111576040517f08c379a000000000000000000000000000000000000000000000000000000000815260040161110890613133565b60405180910390fd5b6000815111611155576040517f08c379a000000000000000000000000000000000000000000000000000000000815260040161114c90613253565b60405180910390fd5b600860008154809291906111689061370b565b919050555060405180608001604052806008548152602001828152602001600081526020013373ffffffffffffffffffffffffffffffffffffffff168152506009600060085481526020019081526020016000206000820151816000015560208201518160010190805190602001906111e29291906125a2565b506040820151816002015560608201518160030160006101000a81548173ffffffffffffffffffffffffffffffffffffffff021916908373ffffffffffffffffffffffffffffffffffffffff1602179055509050507fc66336337a24e513f909b3b25119854dba8385d51307dbc7d31d1b2805e19c7e6008548260003360405161126f949392919061332e565b60405180910390a150565b606061128582611833565b6112c4576040517f08c379a00000000000000000000000000000000000000000000000000000000081526004016112bb90613213565b60405180910390fd5b60006006600084815260200190815260200160002080546112e4906136a8565b80601f0160208091040260200160405190810160405280929190818152602001828054611310906136a8565b801561135d5780601f106113325761010080835404028352916020019161135d565b820191906000526020600020905b81548152906001019060200180831161134057829003601f168201915b50505050509050600061136e611e6e565b90506000815114156113845781925050506113c7565b6000825111156113b95780826040516020016113a1929190612f67565b604051602081830303815290604052925050506113c7565b6113c284611e85565b925050505b919050565b6000811180156113de57506008548111155b61141d576040517f08c379a0000000000000000000000000000000000000000000000000000000008152600401611414906131d3565b60405180910390fd5b60006009600083815260200190815260200160002060405180608001604052908160008201548152602001600182018054611457906136a8565b80601f0160208091040260200160405190810160405280929190818152602001828054611483906136a8565b80156114d05780601f106114a5576101008083540402835291602001916114d0565b820191906000526020600020905b8154815290600101906020018083116114b357829003601f168201915b50505050508152602001600282015481526020016003820160009054906101000a900473ffffffffffffffffffffffffffffffffffffffff1673ffffffffffffffffffffffffffffffffffffffff1673ffffffffffffffffffffffffffffffffffffffff168152505090503373ffffffffffffffffffffffffffffffffffffffff16816060015173ffffffffffffffffffffffffffffffffffffffff1614156115ae576040517f08c379a00000000000000000000000000000000000000000000000000000000081526004016115a5906132d3565b60405180910390fd5b806060015173ffffffffffffffffffffffffffffffffffffffff166108fc349081150290604051600060405180830381858888f193505050501580156115f8573d6000803e3d6000fd5b50348160400181815161160b9190613513565b91508181525050806009600084815260200190815260200160002060008201518160000155602082015181600101908051906020019061164c9291906125a2565b506040820151816002015560608201518160030160006101000a81548173ffffffffffffffffffffffffffffffffffffffff021916908373ffffffffffffffffffffffffffffffffffffffff1602179055509050507f20988fe475351e75813672abada1dddb7ac67cbbeb81e61e1160b8329d8cdf1c828260200151836040015184606001516040516116e2949392919061337a565b60405180910390a15050565b6000600760008154809291906117039061370b565b919050555061171433600754611f2c565b61172060075483611f4a565b61172b600754610ee1565b6007549050919050565b6000600560008473ffffffffffffffffffffffffffffffffffffffff1673ffffffffffffffffffffffffffffffffffffffff16815260200190815260200160002060008373ffffffffffffffffffffffffffffffffffffffff1673ffffffffffffffffffffffffffffffffffffffff16815260200190815260200160002060009054906101000a900460ff16905092915050565b60007f01ffc9a7000000000000000000000000000000000000000000000000000000007bffffffffffffffffffffffffffffffffffffffffffffffffffffffff1916827bffffffffffffffffffffffffffffffffffffffffffffffffffffffff1916149050919050565b60008073ffffffffffffffffffffffffffffffffffffffff166002600084815260200190815260200160002060009054906101000a900473ffffffffffffffffffffffffffffffffffffffff1673ffffffffffffffffffffffffffffffffffffffff1614159050919050565b600033905090565b816004600083815260200190815260200160002060006101000a81548173ffffffffffffffffffffffffffffffffffffffff021916908373ffffffffffffffffffffffffffffffffffffffff160217905550808273ffffffffffffffffffffffffffffffffffffffff1661191a83610d77565b73ffffffffffffffffffffffffffffffffffffffff167f8c5be1e5ebec7d5bd14f71427d1e84f3dd0314c0f7b2291e5b200ac8c7c3b92560405160405180910390a45050565b600061196b82611833565b6119aa576040517f08c379a00000000000000000000000000000000000000000000000000000000081526004016119a190613113565b60405180910390fd5b60006119b583610d77565b90508073ffffffffffffffffffffffffffffffffffffffff168473ffffffffffffffffffffffffffffffffffffffff161480611a2457508373ffffffffffffffffffffffffffffffffffffffff16611a0c8461086e565b73ffffffffffffffffffffffffffffffffffffffff16145b80611a355750611a348185611735565b5b91505092915050565b8273ffffffffffffffffffffffffffffffffffffffff16611a5e82610d77565b73ffffffffffffffffffffffffffffffffffffffff1614611ab4576040517f08c379a0000000000000000000000000000000000000000000000000000000008152600401611aab90613093565b60405180910390fd5b600073ffffffffffffffffffffffffffffffffffffffff168273ffffffffffffffffffffffffffffffffffffffff161415611b24576040517f08c379a0000000000000000000000000000000000000000000000000000000008152600401611b1b906130d3565b60405180910390fd5b611b2f838383611fbe565b611b3a6000826118a7565b6001600360008573ffffffffffffffffffffffffffffffffffffffff1673ffffffffffffffffffffffffffffffffffffffff1681526020019081526020016000206000828254611b8a919061359a565b925050819055506001600360008473ffffffffffffffffffffffffffffffffffffffff1673ffffffffffffffffffffffffffffffffffffffff1681526020019081526020016000206000828254611be19190613513565b92505081905550816002600083815260200190815260200160002060006101000a81548173ffffffffffffffffffffffffffffffffffffffff021916908373ffffffffffffffffffffffffffffffffffffffff160217905550808273ffffffffffffffffffffffffffffffffffffffff168473ffffffffffffffffffffffffffffffffffffffff167fddf252ad1be2c89b69c2b068fc378daa952ba7f163c4a11628f55a4df523b3ef60405160405180910390a4611ca0838383611fc3565b505050565b8173ffffffffffffffffffffffffffffffffffffffff168373ffffffffffffffffffffffffffffffffffffffff161415611d14576040517f08c379a0000000000000000000000000000000000000000000000000000000008152600401611d0b906130f3565b60405180910390fd5b80600560008573ffffffffffffffffffffffffffffffffffffffff1673ffffffffffffffffffffffffffffffffffffffff16815260200190815260200160002060008473ffffffffffffffffffffffffffffffffffffffff1673ffffffffffffffffffffffffffffffffffffffff16815260200190815260200160002060006101000a81548160ff0219169083151502179055508173ffffffffffffffffffffffffffffffffffffffff168373ffffffffffffffffffffffffffffffffffffffff167f17307eab39ab6107e8899845ad3d59bd9653f200f220920489ca2b5937696c3183604051611e059190613036565b60405180910390a3505050565b611e1d848484611a3e565b611e2984848484611fc8565b611e68576040517f08c379a0000000000000000000000000000000000000000000000000000000008152600401611e5f90613073565b60405180910390fd5b50505050565b606060405180602001604052806000815250905090565b6060611e9082611833565b611ecf576040517f08c379a0000000000000000000000000000000000000000000000000000000008152600401611ec690613273565b60405180910390fd5b6000611ed9611e6e565b90506000815111611ef95760405180602001604052806000815250611f24565b80611f038461215f565b604051602001611f14929190612f67565b6040516020818303038152906040525b915050919050565b611f4682826040518060200160405280600081525061230c565b5050565b611f5382611833565b611f92576040517f08c379a0000000000000000000000000000000000000000000000000000000008152600401611f89906131b3565b60405180910390fd5b80600660008481526020019081526020016000209080519060200190611fb99291906125a2565b505050565b505050565b505050565b6000611fe98473ffffffffffffffffffffffffffffffffffffffff16612367565b15612152578373ffffffffffffffffffffffffffffffffffffffff1663150b7a0261201261189f565b8786866040518563ffffffff1660e01b81526004016120349493929190612fa6565b602060405180830381600087803b15801561204e57600080fd5b505af192505050801561207f57506040513d601f19601f8201168201806040525081019061207c919061294e565b60015b612102573d80600081146120af576040519150601f19603f3d011682016040523d82523d6000602084013e6120b4565b606091505b506000815114156120fa576040517f08c379a00000000000000000000000000000000000000000000000000000000081526004016120f190613073565b60405180910390fd5b805181602001fd5b63150b7a0260e01b7bffffffffffffffffffffffffffffffffffffffffffffffffffffffff1916817bffffffffffffffffffffffffffffffffffffffffffffffffffffffff191614915050612157565b600190505b949350505050565b606060008214156121a7576040518060400160405280600181526020017f30000000000000000000000000000000000000000000000000000000000000008152509050612307565b600082905060005b600082146121d95780806121c29061370b565b915050600a826121d29190613569565b91506121af565b60008167ffffffffffffffff81111561221b577f4e487b7100000000000000000000000000000000000000000000000000000000600052604160045260246000fd5b6040519080825280601f01601f19166020018201604052801561224d5781602001600182028036833780820191505090505b5090505b6000851461230057600182612266919061359a565b9150600a856122759190613754565b60306122819190613513565b60f81b8183815181106122bd577f4e487b7100000000000000000000000000000000000000000000000000000000600052603260045260246000fd5b60200101907effffffffffffffffffffffffffffffffffffffffffffffffffffffffffffff1916908160001a905350600a856122f99190613569565b9450612251565b8093505050505b919050565b612316838361238a565b6123236000848484611fc8565b612362576040517f08c379a000000000000000000000000000000000000000000000000000000000815260040161235990613073565b60405180910390fd5b505050565b6000808273ffffffffffffffffffffffffffffffffffffffff163b119050919050565b600073ffffffffffffffffffffffffffffffffffffffff168273ffffffffffffffffffffffffffffffffffffffff1614156123fa576040517f08c379a00000000000000000000000000000000000000000000000000000000081526004016123f1906131f3565b60405180910390fd5b61240381611833565b15612443576040517f08c379a000000000000000000000000000000000000000000000000000000000815260040161243a906130b3565b60405180910390fd5b61244f60008383611fbe565b6001600360008473ffffffffffffffffffffffffffffffffffffffff1673ffffffffffffffffffffffffffffffffffffffff168152602001908152602001600020600082825461249f9190613513565b92505081905550816002600083815260200190815260200160002060006101000a81548173ffffffffffffffffffffffffffffffffffffffff021916908373ffffffffffffffffffffffffffffffffffffffff160217905550808273ffffffffffffffffffffffffffffffffffffffff16600073ffffffffffffffffffffffffffffffffffffffff167fddf252ad1be2c89b69c2b068fc378daa952ba7f163c4a11628f55a4df523b3ef60405160405180910390a461256060008383611fc3565b5050565b6040518060800160405280600081526020016060815260200160008152602001600073ffffffffffffffffffffffffffffffffffffffff1681525090565b8280546125ae906136a8565b90600052602060002090601f0160209004810192826125d05760008555612617565b82601f106125e957805160ff1916838001178555612617565b82800160010185558215612617579182015b828111156126165782518255916020019190600101906125fb565b5b5090506126249190612628565b5090565b5b80821115612641576000816000905550600101612629565b5090565b6000612658612653846133eb565b6133c6565b90508281526020810184848401111561267057600080fd5b61267b848285613666565b509392505050565b60006126966126918461341c565b6133c6565b9050828152602081018484840111156126ae57600080fd5b6126b9848285613666565b509392505050565b6000813590506126d081613de9565b92915050565b6000813590506126e581613e00565b92915050565b6000813590506126fa81613e17565b92915050565b60008151905061270f81613e17565b92915050565b600082601f83011261272657600080fd5b8135612736848260208601612645565b91505092915050565b600082601f83011261275057600080fd5b8135612760848260208601612683565b91505092915050565b60008135905061277881613e2e565b92915050565b60006020828403121561279057600080fd5b600061279e848285016126c1565b91505092915050565b600080604083850312156127ba57600080fd5b60006127c8858286016126c1565b92505060206127d9858286016126c1565b9150509250929050565b6000806000606084860312156127f857600080fd5b6000612806868287016126c1565b9350506020612817868287016126c1565b925050604061282886828701612769565b9150509250925092565b6000806000806080858703121561284857600080fd5b6000612856878288016126c1565b9450506020612867878288016126c1565b935050604061287887828801612769565b925050606085013567ffffffffffffffff81111561289557600080fd5b6128a187828801612715565b91505092959194509250565b600080604083850312156128c057600080fd5b60006128ce858286016126c1565b92505060206128df858286016126d6565b9150509250929050565b600080604083850312156128fc57600080fd5b600061290a858286016126c1565b925050602061291b85828601612769565b9150509250929050565b60006020828403121561293757600080fd5b6000612945848285016126eb565b91505092915050565b60006020828403121561296057600080fd5b600061296e84828501612700565b91505092915050565b60006020828403121561298957600080fd5b600082013567ffffffffffffffff8111156129a357600080fd5b6129af8482850161273f565b91505092915050565b6000602082840312156129ca57600080fd5b60006129d884828501612769565b91505092915050565b60006129ed8383612ee6565b905092915050565b6000612a018383612f49565b60208301905092915050565b612a16816135e0565b82525050565b612a25816135e0565b82525050565b612a34816135ce565b82525050565b6000612a458261346d565b612a4f81856134b3565b935083602082028501612a618561344d565b8060005b85811015612a9d5784840389528151612a7e85826129e1565b9450612a8983613499565b925060208a01995050600181019050612a65565b50829750879550505050505092915050565b6000612aba82613478565b612ac481856134c4565b9350612acf8361345d565b8060005b83811015612b00578151612ae788826129f5565b9750612af2836134a6565b925050600181019050612ad3565b5085935050505092915050565b612b16816135f2565b82525050565b6000612b2782613483565b612b3181856134d5565b9350612b41818560208601613675565b612b4a81613841565b840191505092915050565b612b5e81613654565b82525050565b6000612b6f8261348e565b612b7981856134e6565b9350612b89818560208601613675565b612b9281613841565b840191505092915050565b6000612ba88261348e565b612bb281856134f7565b9350612bc2818560208601613675565b612bcb81613841565b840191505092915050565b6000612be18261348e565b612beb8185613508565b9350612bfb818560208601613675565b80840191505092915050565b6000612c146032836134f7565b9150612c1f82613852565b604082019050919050565b6000612c376025836134f7565b9150612c42826138a1565b604082019050919050565b6000612c5a601c836134f7565b9150612c65826138f0565b602082019050919050565b6000612c7d6024836134f7565b9150612c8882613919565b604082019050919050565b6000612ca06019836134f7565b9150612cab82613968565b602082019050919050565b6000612cc3602c836134f7565b9150612cce82613991565b604082019050919050565b6000612ce66024836134f7565b9150612cf1826139e0565b604082019050919050565b6000612d096038836134f7565b9150612d1482613a2f565b604082019050919050565b6000612d2c602a836134f7565b9150612d3782613a7e565b604082019050919050565b6000612d4f6029836134f7565b9150612d5a82613acd565b604082019050919050565b6000612d72602e836134f7565b9150612d7d82613b1c565b604082019050919050565b6000612d95600f836134f7565b9150612da082613b6b565b602082019050919050565b6000612db86020836134f7565b9150612dc382613b94565b602082019050919050565b6000612ddb6031836134f7565b9150612de682613bbd565b604082019050919050565b6000612dfe602c836134f7565b9150612e0982613c0c565b604082019050919050565b6000612e216019836134f7565b9150612e2c82613c5b565b602082019050919050565b6000612e44602f836134f7565b9150612e4f82613c84565b604082019050919050565b6000612e676021836134f7565b9150612e7282613cd3565b604082019050919050565b6000612e8a6033836134f7565b9150612e9582613d22565b604082019050919050565b6000612ead6018836134f7565b9150612eb882613d71565b602082019050919050565b6000612ed06031836134f7565b9150612edb82613d9a565b604082019050919050565b6000608083016000830151612efe6000860182612f49565b5060208301518482036020860152612f168282612b64565b9150506040830151612f2b6040860182612f49565b506060830151612f3e6060860182612a0d565b508091505092915050565b612f528161364a565b82525050565b612f618161364a565b82525050565b6000612f738285612bd6565b9150612f7f8284612bd6565b91508190509392505050565b6000602082019050612fa06000830184612a2b565b92915050565b6000608082019050612fbb6000830187612a2b565b612fc86020830186612a2b565b612fd56040830185612f58565b8181036060830152612fe78184612b1c565b905095945050505050565b6000602082019050818103600083015261300c8184612a3a565b905092915050565b6000602082019050818103600083015261302e8184612aaf565b905092915050565b600060208201905061304b6000830184612b0d565b92915050565b6000602082019050818103600083015261306b8184612b9d565b905092915050565b6000602082019050818103600083015261308c81612c07565b9050919050565b600060208201905081810360008301526130ac81612c2a565b9050919050565b600060208201905081810360008301526130cc81612c4d565b9050919050565b600060208201905081810360008301526130ec81612c70565b9050919050565b6000602082019050818103600083015261310c81612c93565b9050919050565b6000602082019050818103600083015261312c81612cb6565b9050919050565b6000602082019050818103600083015261314c81612cd9565b9050919050565b6000602082019050818103600083015261316c81612cfc565b9050919050565b6000602082019050818103600083015261318c81612d1f565b9050919050565b600060208201905081810360008301526131ac81612d42565b9050919050565b600060208201905081810360008301526131cc81612d65565b9050919050565b600060208201905081810360008301526131ec81612d88565b9050919050565b6000602082019050818103600083015261320c81612dab565b9050919050565b6000602082019050818103600083015261322c81612dce565b9050919050565b6000602082019050818103600083015261324c81612df1565b9050919050565b6000602082019050818103600083015261326c81612e14565b9050919050565b6000602082019050818103600083015261328c81612e37565b9050919050565b600060208201905081810360008301526132ac81612e5a565b9050919050565b600060208201905081810360008301526132cc81612e7d565b9050919050565b600060208201905081810360008301526132ec81612ea0565b9050919050565b6000602082019050818103600083015261330c81612ec3565b9050919050565b60006020820190506133286000830184612f58565b92915050565b60006080820190506133436000830187612f58565b81810360208301526133558186612b9d565b90506133646040830185612b55565b6133716060830184612a1c565b95945050505050565b600060808201905061338f6000830187612f58565b81810360208301526133a18186612b9d565b90506133b06040830185612f58565b6133bd6060830184612a1c565b95945050505050565b60006133d06133e1565b90506133dc82826136da565b919050565b6000604051905090565b600067ffffffffffffffff82111561340657613405613812565b5b61340f82613841565b9050602081019050919050565b600067ffffffffffffffff82111561343757613436613812565b5b61344082613841565b9050602081019050919050565b6000819050602082019050919050565b6000819050602082019050919050565b600081519050919050565b600081519050919050565b600081519050919050565b600081519050919050565b6000602082019050919050565b6000602082019050919050565b600082825260208201905092915050565b600082825260208201905092915050565b600082825260208201905092915050565b600082825260208201905092915050565b600082825260208201905092915050565b600081905092915050565b600061351e8261364a565b91506135298361364a565b9250827fffffffffffffffffffffffffffffffffffffffffffffffffffffffffffffffff0382111561355e5761355d613785565b5b828201905092915050565b60006135748261364a565b915061357f8361364a565b92508261358f5761358e6137b4565b5b828204905092915050565b60006135a58261364a565b91506135b08361364a565b9250828210156135c3576135c2613785565b5b828203905092915050565b60006135d98261362a565b9050919050565b60006135eb8261362a565b9050919050565b60008115159050919050565b60007fffffffff0000000000000000000000000000000000000000000000000000000082169050919050565b600073ffffffffffffffffffffffffffffffffffffffff82169050919050565b6000819050919050565b600061365f8261364a565b9050919050565b82818337600083830152505050565b60005b83811015613693578082015181840152602081019050613678565b838111156136a2576000848401525b50505050565b600060028204905060018216806136c057607f821691505b602082108114156136d4576136d36137e3565b5b50919050565b6136e382613841565b810181811067ffffffffffffffff8211171561370257613701613812565b5b80604052505050565b60006137168261364a565b91507fffffffffffffffffffffffffffffffffffffffffffffffffffffffffffffffff82141561374957613748613785565b5b600182019050919050565b600061375f8261364a565b915061376a8361364a565b92508261377a576137796137b4565b5b828206905092915050565b7f4e487b7100000000000000000000000000000000000000000000000000000000600052601160045260246000fd5b7f4e487b7100000000000000000000000000000000000000000000000000000000600052601260045260246000fd5b7f4e487b7100000000000000000000000000000000000000000000000000000000600052602260045260246000fd5b7f4e487b7100000000000000000000000000000000000000000000000000000000600052604160045260246000fd5b6000601f19601f8301169050919050565b7f4552433732313a207472616e7366657220746f206e6f6e20455243373231526560008201527f63656976657220696d706c656d656e7465720000000000000000000000000000602082015250565b7f4552433732313a207472616e736665722066726f6d20696e636f72726563742060008201527f6f776e6572000000000000000000000000000000000000000000000000000000602082015250565b7f4552433732313a20746f6b656e20616c7265616479206d696e74656400000000600082015250565b7f4552433732313a207472616e7366657220746f20746865207a65726f2061646460008201527f7265737300000000000000000000000000000000000000000000000000000000602082015250565b7f4552433732313a20617070726f766520746f2063616c6c657200000000000000600082015250565b7f4552433732313a206f70657261746f7220717565727920666f72206e6f6e657860008201527f697374656e7420746f6b656e0000000000000000000000000000000000000000602082015250565b7f596f75206d757374206f776e20616e206e667420746f2075706c6f616420612060008201527f706f737400000000000000000000000000000000000000000000000000000000602082015250565b7f4552433732313a20617070726f76652063616c6c6572206973206e6f74206f7760008201527f6e6572206e6f7220617070726f76656420666f7220616c6c0000000000000000602082015250565b7f4552433732313a2062616c616e636520717565727920666f7220746865207a6560008201527f726f206164647265737300000000000000000000000000000000000000000000602082015250565b7f4552433732313a206f776e657220717565727920666f72206e6f6e657869737460008201527f656e7420746f6b656e0000000000000000000000000000000000000000000000602082015250565b7f45524337323155524953746f726167653a2055524920736574206f66206e6f6e60008201527f6578697374656e7420746f6b656e000000000000000000000000000000000000602082015250565b7f496e76616c696420706f73742069640000000000000000000000000000000000600082015250565b7f4552433732313a206d696e7420746f20746865207a65726f2061646472657373600082015250565b7f45524337323155524953746f726167653a2055524920717565727920666f722060008201527f6e6f6e6578697374656e7420746f6b656e000000000000000000000000000000602082015250565b7f4552433732313a20617070726f76656420717565727920666f72206e6f6e657860008201527f697374656e7420746f6b656e0000000000000000000000000000000000000000602082015250565b7f43616e6e6f74207061737320616e20656d707479206861736800000000000000600082015250565b7f4552433732314d657461646174613a2055524920717565727920666f72206e6f60008201527f6e6578697374656e7420746f6b656e0000000000000000000000000000000000602082015250565b7f4552433732313a20617070726f76616c20746f2063757272656e74206f776e6560008201527f7200000000000000000000000000000000000000000000000000000000000000602082015250565b7f4d757374206f776e20746865206e667420796f752077616e7420746f2073656c60008201527f65637420617320796f75722070726f66696c6500000000000000000000000000602082015250565b7f43616e6e6f742074697020796f7572206f776e20706f73740000000000000000600082015250565b7f4552433732313a207472616e736665722063616c6c6572206973206e6f74206f60008201527f776e6572206e6f7220617070726f766564000000000000000000000000000000602082015250565b613df2816135ce565b8114613dfd57600080fd5b50565b613e09816135f2565b8114613e1457600080fd5b50565b613e20816135fe565b8114613e2b57600080fd5b50565b613e378161364a565b8114613e4257600080fd5b5056fea264697066735822122048032124919fe096f5fa07d0d2bab3e2925d6c4a253a5d047835ff42911f7a9164736f6c63430008040033",
  "linkReferences": {},
  "deployedLinkReferences": {}
}